:02000000C92A0B
:06000600000000000800EC
:10000C000F3083120313FC004730FD00FD0B0C284E
:0A001C00FC0B0C2800000000080097
:0E002600213083120313FD00FD0B1728080084
:1000340083160313C21B21288312861323288312D9
:1000440086178316421B2928831206132B28831232
:1000540006178316C21A3128831286123328831294
:1000640086168316421A3928831206123B288312F5
:100074000616831634184128831206154328831262
:1000840006118615032086118316C2194C28831283
:1000940086134E2883128617831642195428831216
:1000A40006135628831206178316C2185C28831277
:1000B40086125E28831286168316421864288312D9
:1000C4000612662883120616831634186C288312C7
:1000D40006156E28831206118615032086118316D1
:0C00E400341C7628062077281320080022
:1000F00083160313C201C401C5011030C6000430C9
:1001000045020318AD28F030831288008030F000DB
:100110007008083E840083164609F00070088000CD
:10012000032003200F3083120805F00070088316A7
:10013000C30070080319A7284408C2004308031924
:10014000A528C30CC313C20A9E280430C500C60DDF
:1001500046100430C407C50A7F284208F000080092
:10016000063083120313FD00FD0BB42800000800C5
:10017000CA28803083160313BF00DD28C030BF00BB
:10018000DD289430BF00DD28D430BF00DD2880306A
:10019000BF00DD28831603133F08013A0319B9286D
:1001A0003F08023A0319BE283F08033A0319C12841
:1001B0003F08043A0319C428C7284003F0003F0849
:1001C000F0077008BF0034147008C2001A208316AC
:0E01D00034104108C2001A20831634140800AF
:1001DE0078207008BF000F3083120805F000031955
:0E01EE00FA28B020F22883163F08F00008001F
:1001FC00831603133F08831203178D0083168C1389
:0A020C000C1483120C08F000080027
:10021600831603178C1C112900000B2903133F08B2
:10022600831203178D0083160313400883120317E6
:100236008C0083168C130C150B08F0008B135530AD
:100246008D00AA308D008C14F01B2B298B132C29C2
:060256008B170C110800DB
:10025C008316031334103F08C2001A20831634147B
:02026C00080088
:10026E00343083120313FC00F130FD00FD0B3D29E9
:0A027E00FC0B3D2900000000080001
:1002880037218316BF01FE20700883160313B700B9
:10029800372101308316BF00FE2070088316031330
:1002A800B800372102308316BF00FE20700883167D
:1002B8000313B900372103308316BF00FE207008EE
:0A02C80083160313BA003721080063
:1002D20037218316BF01831263088316C0000B21E6
:1002E200372101308316BF00831264088316C000D1
:1002F2000B21372102308316BF0083126508831653
:10030200C0000B21372103308316BF008312660819
:080312008316C0000B21080056
:10031A0083120313EF01EF2070088312EF007008B5
:10032A0003199029BC293130EF00EC293230EF0053
:10033A00EC293330EF00EC293430EF00EC2935306A
:10034A00EF00EC293630EF00EC293730EF00EC29CA
:10035A003830EF00EC293930EF00EC292A30EF0071
:10036A00EC293030EF00EC292330EF00EC296F083C
:10037A00013A031998296F08023A03199B296F0851
:10038A00033A03199E296F08053A0319A1296F0830
:10039A00063A0319A4296F08073A0319A7296F080F
:1003AA00093A0319AA296F080A3A0319AD296F08ED
:1003BA000B3A0319B0296F080D3A0319B3296F08CC
:1003CA000E3A0319B6296F080F3A0319B9292F08EB
:1003DA00633E84006F08800002308316BF008312D8
:1003EA002F0A8316C00083122F08633E8400000878
:1003FA008316C100B8208312AF0A0319B00A080095
:0E040A00831203136E088A006D08820008003A
:100418001E2A803083160313BB00312AC030BB006C
:10042800312A9430BB00312AD430BB00312A8030C5
:10043800BB00312A831603133B08013A03190D2A1E
:100448003B08023A0319122A3B08033A0319152AF2
:100458003B08043A0319182A1B2A3C03F0003B08FE
:10046800F0077008BB007008C2001A208316341009
:10047800BE013E083D078400000803194B2A3E08C8
:100488003D0784000008BF002E21BE0A3D2A34140F
:0204980008005A
:10049A00013083160313C2001A2001308316BB00F1
:1004AA000130BC002030BD000C228312AF01B00124
:0E04BA008D218D218D218D2169214421080085
:1004C8008316031386110611061286120613861365
:1004D8008312861106118613061386120612062049
:1004E8000620062086160616861503208611062085
:1004F80086150320861106208615032086110620FE
:1005080006128615032086110620861503208611FB
:10051800861286178615032086110620861306166E
:1005280086150320861106128615032086110620DB
:1005380086150320861106168615032086110620C7
:1005480006128615032086118617061786160616C4
:0E055800861503208611062083163414080031
:1005660005228A110A128000840AED0A0319EE0A8E
:08057600F003031DB32A080085
:10057E00803083120313F0007008083E8400FF30B1
:04058E0080000800E1
:100592003E240730831603139F00831285018316BE
:1005A20085018312051085100511BF2264224421A2
:1005B20083163708FF3A031D032B3808FF3A031D41
:1005C200032B3908FF3A031D032B3A08FF3A031D98
:1005D200032BBF013230C0000B21372101308316BB
:1005E200BF003330C0000B21372102308316BF0019
:1005F2003430C0000B21372103308316BF00353061
:10060200C0000B21442101308316C2001A200C3095
:100612008316C2001A2001308316BB000130BC00D1
:10062200A030BD000C220630FB001330FC00AD30C0
:10063200FD00FD0B1A2BFC0B1A2BFB0B1A2B0000D7
:1006420000000130C2001A208316B501B6018316DC
:100652000130C2001A2002308316BB000330BC00F6
:100662003D30BD000C228312AF01B0018D21630821
:100672002A3A031DDF2B01308316C2001A200130F3
:100682008316BB000130BC003130BD000C22831246
:10069200AF01B0018D218D218D218D218D21630826
:1006A200323A031D6A2B6408333A031D6A2B65082C
:1006B200343A031D6A2B6608353A031D6A2B670814
:1006C200353A031D6A2B8D216808233A031D6A2BD4
:1006D2004D22803083163606F00080307002031DF2
:1006E200742B033035020318B02B83126308831670
:1006F2003706031DB02B8312640883163806031DC8
:10070200B02B8312650883163906031DB02B8312A2
:10071200660883163A06031DB02B83126708233A34
:10072200031DB02B01308316C2001A20013083163C
:10073200BB000130BC004530BD000C228312851481
:100742001F30FB007130FC001E30FD00FD0BA72B9B
:10075200FC0BA72BFB0BA72B00008510CF2B8316BE
:10076200B50A0319B60A0130C2001A2001308316F5
:10077200BB000130BC005430BD000C2283120514B2
:100782000230FB000430FC00BA30FD00FD0BC72B29
:10079200FC0BC72BFB0BC72B000005108030831608
:1007A2003606F00080307002031DD92B033035026B
:1007B200031CDF2B831205150514DB2B282BE02BE2
:10087C0020308400433083120313F000E630ED0087
:10088C000330EE00B322A030840014308312031323
:0E089C00F0002930ED000430EE00B322080019
:1007CC0045346E3474346534723420344E346534AC
:0E07DC007734203443346F3464346534003491
:0407EA0000340034A3
:1007EE0045346E34743465347234203443346F348B
:0807FE0064346534003400345A
:100806005034723465347334733420342A340034EB
:100816004134633463346534733473342034473479
:0E082600723461346E347434653464340034DA
:10083400413463346334653473347334203444345E
:0E08440065346E346934653464340034003435
:1008520049346E3469347434693461346C346934C3
:100862007A3469346E3467342E342E342E342E3476
:080872002E342E340034003452
:02400E004A2F37
:00000001FF
